:200000000C9469000C9486000C9486000C942E020C9486000C9486000C9486000C94860023
:200020000C9486000C9486000C9486000C9486000C9486000C9486000C9486000C94860090
:200040000C9486000C9486000C9486000C9486000C9486000C9486000C9486000C94860070
:200060000C9486000C94860009022200010100A00A0904000001030000000921010100011D
:20008000221600070581030800641201100100000008C016DF050001010200010A034F00E5
:2000A00050004C003200120364006500610064005F006D0061006E00040309040600FF0912
:2000C00001A101150026FF00750895210900B20201C011241FBECFEFD8E0DEBFCDBF11E0F0
:2000E000A0E0B1E0E4EDF7E002C005900D92A230B107D9F711E0A2E0B1E001C01D92AD35A1
:20010000B107E1F70E94C8030C94E8030C940000459887EB9BE00197F1F700C00000459ACE
:20012000089588E387B980E388B90E948800089543988BB9449884E08A95F1F7449A80E167
:200140008A95F1F7439A6BB9449884E08A95F1F7449A8CE58A95F1F70895CF93C62F209155
:20016000100124FF07C02091110138E823272093110103C02AE5209310012C2FFC01A2E121
:20018000B1E081918D9321501216DCF382E191E06C2F0E942A02CC5FC0931001CF9108956B
:2001A000CF93DF9360912201635067FDC9C020911F018CE090E0821B9109EC01CA5DDE4F92
:2001C00020911E012D3209F0A8C0683009F0B6C023EC209305012AE52093000110921D013D
:2001E0002881207639F0CE010E94B3038F3F09F483C089C03A8110920E012981222331F499
:2002000010920F012EE031E082E071C0253019F43093230169C0263009F050C0FC01E85D67
:20022000FE4F2081875D9E4FFC018081813019F48AE890E01AC0823041F488E690E090939F
:2002400021018093200182E235C08330F1F4222341F488EB90E0909321018093200184E01D
:2002600029C0213041F486EA90E0909321018093200182E11FC02230E1F48CE990E0909345
:200280002101809320018AE015C0813241F48AE790E0909321018093200189E00BC082329F
:2002A00041F48CEB90E0909321018093200186E101C080E090E490931D0125C0283069F0D6
:2002C000293019F4309325010FC02A3049F02B3059F48BE48093110107C025E231E002C090
:2002E0002EE031E081E003C02EE031E080E0309321012093200107C0988197FD8E8190E888
:2003000090931D0107C09F81992321F49E81981708F4892F8093010111C080911D0187FFC7
:200320000DC0CE010E9468038F3F21F48EE18093000104C0882311F01092010110922201D5
:200340008091000184FF46C0809101018F3F09F441C0C82F893008F0C8E08C1B8093010117
:200360008091050198E8892780930501CC2329F1809120019091210120911D0126FF0AC0E1
:20038000FC012C2FA6E0B1E034913D9331962150D9F708C0DC012C2FE6E0F1E03D91319328
:2003A0002150E1F72C2F215030E02F5F3F4F280F391F309321012093200186E091E06C2F42
:2003C0000E942A02CC5FCC3019F08FEF80930101C093000184E193B1937031F48150D9F7C6
:2003E0001092230110921C01C1E08111C0E0809102018C1731F0CC2311F40E94B003C09331
:200400000201DF91CF910895E8E6F0E0808181608083EBE6F0E08081816080838BE48093E1
:2004200011018AE5809310010895A82FB92F80E090E041E050EA609530E009C02D9182275B
:200440009795879510F084279527305EC8F36F5FA8F30895EADF8D939D930895CF93CFB700
:20046000CF93C395189BE9F7189B09C0189B07C0189B05C0189B03C0189B01C0A3C0DF9302
:20048000C0911F01DD27CA5DDE4F189B02C0DF91EBCF2F930F931F9303B12FEF00FB20F9F8
:2004A0004F933F9313B14FEF012700FB21F93BE031C04E7F012F13B1216028C0102F4D7F08
:2004C0002260000003B129C04B7F2460012F000013B12BC013B1477F28602AC04F7E03B153
:2004E00020612CC04F7D13B120622FC04F7B03B1206432C0422703B149934FEF000010272C
:2005000010FB20F913B11370C9F1297F91F2012700FB21F903B1237F89F2315058F110277C
:2005200010FB22F913B1277E79F2012700FB23F92F7C81F203B1102710FB24F92F7971F246
:2005400000C013B1012700FB25F92F7359F200C003B1102710FB26F9223040F200C013B10C
:20056000012700FB27F9243028F64F77206813B10000F9CF11E01CBB002719C03B503195D3
:20058000C31BD04011E01CBB0881033CF9F00B34E9F020911C011981110F1213EDCF4A81A8
:2005A000441F093641F10D3211F0013E29F7009324013F914F911F910F912F91DF91CCB361
:2005C000C0FD4FCFCF91CFBFCF91189520912401222379F310912201112369F534306AF1A9
:2005E0003093220120931E0110911F013BE0311B30931F0122C0009122010130E4F40AE5AA
:200600004F7049F43091000134FD19C000930001C5E0D1E018C03091100134FD10C00093EA
:200620001001C1E1D1E00FC02795A8F45150A9F4220F0000F9CF4AE503C042ED01C0432FA4
:20064000C4E1D0E032E014B11360289A14B905B120E413E05F93012756E005B9279520F4E1
:20066000515021F4220FF9CF012756E000003B5A05B9D0F2279528F4515029F4220F000091
:20068000F9CF012756E0279505B920F4515021F4220FF9CF012756E02991332305B921F6B4
:2006A0000C7F10912301110FC651D04005B911F010931C0111E01CBB016014B11C7F402F2C
:2006C0004C7F5F9100C000C005B914B945B971CF1F93CF93DF93482F792FD0910301DD230C
:2006E000D1F1C62FD61708F4CD2F10910401212F30E0245C3E4FC901642F4C2F50E00E94A1
:20070000DF031C0F10930401DC1BD0930301DD2399F01AC0FE01EE0FFF1FE35CFE4F8081BC
:2007200061818F3F29F46F3F19F40E94880002C00E949800219602C0C0E0D0E080913C01F4
:2007400090E0C817D90734F381E090910301992319F080E001C081E0DF91CF911F91089559
:200760000E9488000895FC0180818076803261F48181813011F0893049F481E28093030193
:20078000109204018FEF089580E0089580E008950E9491008FEF8AB90E940402209A589A55
:2007A0008FEB97E2A9E081509040A040E1F700C000005898209878940E94D000FDCFFB01B6
:1607C000DC0102C001900D9241505040D8F70895F894FFCF5AFF14
:00000001FF
